:07000300FBF5907FF47E0184
:0F000A007D6EAC07ECD3940040031C80F7DDF350
:0100190022C4
:1000A300758920758BFA758DFAD28ED29CC29FD238
:0600B3009ED2AFD2AC2288
:10002600C290120006C29112000AC29212000AC2BF
:100036009312000AC29412000AC29512000AC296CE
:0C00460012000AC29712000A7590FF22F7
:10005200C297120006C29612000AC29512000AC284
:100062009412000AC29312000AC29212000AC291AA
:0C00720012000AC29012000A7590FF22D2
:1000B9007BFE1200067801AF03EF08800123D8FD0B
:0500C90012000380EDB0
:1000CE007B7F1200067801AF03EF08800103D8FD95
:0500DE0012000380ED9B
:10007E001200A3E508B40103120026E508B402033A
:10008E00120052E508B403031200B9E508B404E304
:05009E001200CE80DE1F
:0300230002001ABE
:09001A00C2988599098509083294
:030000000200E318
:0C00E300787FE4F6D8FD75810902007EEC
:00000001FF
